:020000040800F2
:1000000000000110A9D202086F790208A9BD0208F8
:1000100065D3020865D3020865D30208000000001A
:100020000000000000000000000000006D790208E0
:100030006B7902080000000069790208F5D3010815
:1000400065D3020865D3020865D3020865D30208A8
:1000500065D3020865D30208EB5D0108E95D01087C
:1000600065D30208E75D0108E55D0108D1300008AD
:10007000C1300008B1300008A130000891300008FC
:100080007D3000086930000865D3020865D3020896
:1000900065D3020865D3020865D30208E35D010851
:1000A000C9D0010839D1010865D3020861D101081E
:1000B00029D1010819D1010809D1010865D3020825
:1000C00065D3020865D3020865D3020865D3020828
:1000D00065D302087531000865D30208693100084C
:1000E000E15D010865D30208457B020865D302087B
:1000F000D9D0010865D30208E9D0010855300008BD
:1001000065D3020865D30208F9D0010865D3020857
:1001100065D3020865D3020865D3020865D30208D7
:10012000413000082D300008193000080530000863
:10013000F12F000865D3020865D3020865D30208D1
:1001400065D3020865D3020865D3020899730208D3
:10015000DD2F0008C92F0008B32F00085D3100080B
:1001600065D3020865D3020865D3020865D3020887
:1001700065D3020865D3020865D3020865D3020877
:0801800065D3020865D30208F3
:10018800027B01681F2A88BF203A4FF020038CBFEA
:100198004968096893400B4214BF012300239BB1AF
:1001A8000A4B00221A7042680168136823F00103A1
:1001B8001360027B1F2A4FF0200303D9203A934093
:1001C800CB60704793408B60704700BFBDCA00206A
:1001D8007047704710B5154C23889A0B013A022ACC
:1001E80023D9C3F30D0303EB83035B0007EE903AB7
:1001F80062880F4B9FED0F7ADFED0F6AF8EEE77A12
:10020800C82412FB043367EE877A07EE103AB8EE7B
:10021800C77A87EE267ADFED096A37EE267A08B1C3
:10022800C0ED007A09B181ED007A10BD20300020C0
:100238003270FEFF6D79D73D00E0FF443393884369
:100248006C4B6D4A2DE9F04F5E8954684FEA062AD7
:10025800B4EB0A0A9C884FEA04481C894FF0000551
:100268004FF0000B65EB0B0BA4FB0A6704FB0B7745
:10027800F40944EA476418EB04065C884FF0000967
:100288004FEAE7154FEAC438DC8849EB050787B021
:10029800CDE90467A4FB0A6704FB0B77340A44EA38
:1002A800076418EB04064FEA27259C894FF00009DC
:1002B80049EB0507CDE90067AAFB046704FB0B7748
:1002C800F40D44EA472414F5FA664FEAE75545F178
:1002D8000007B6F5FA6F77F10003CDE90267964695
:1002E80067DAA4FB046704FB05F34FF0050C07EB82
:1002F8004307DDE90489A6FB0C230CFB07335F10D9
:100308004FEA3206B8EB06084FEA920669EB07098E
:1003180046EA83769F10DDE90023921B63EB07030F
:10032800DDE90267CDE90023344A4FF0FF339642F6
:1003380077EB0303CDE9048928DA40F6AC52A41818
:100348004FF000035D4104FB05F3A4FB044505EBF6
:1003580043056FF00602664202FB0566A4FB022312
:10036800334418EB020649EB0307CDE904670B2673
:10037800A4FB062306FB0533DDE900455B104FEAC5
:100388003202A41A65EB0305CDE900450AFB0BF31D
:10039800DDE90245AAFB0AAB0BEB430B4FEADA7225
:1003A80042EA4B02A41A4FEAEB7365EB0305CDE969
:1003B8000245DEF80840009B019DA4FB032304FBD3
:1003C80005334FEA52584FEA635948EAC328DDE932
:1003D8000423B8EB020269EB03039946D30B43EA03
:1003E800494300B1036009B1029B0B6007B0BDE847
:1003F800F08F00BFC47E00202030002024FAFFFFC9
:100408002DE9F04F6D4B6E4CDE682288B4F810E091
:10041800B4F80CC0C2EB26135200C2EBE602B4F9E2
:1004280002605B435643B4F904201B1353439B13E8
:1004380003EBE62606EB860387B080331B12049392
:10044800604BB4F908201B680393B6F5FA384FEAF5
:10045800E67747F1FF39A8FB08AB08FB09F30BEB7C
:10046800430BE3890593D31705460291B4F90A00B3
:10047800A66108FB03F102FB0911A8FB02230B4448
:10048800C1171F030AFB01F300FB0B33AAFB000192
:100498001603194447EA1257020A42EA01629219FE
:1004A8004FEA2123E6887B41003243F50043A2FB53
:1004B800060106FB03114B100093CB170193DDE9EE
:1004C800002313436DD00FFA8EF0BDF91460C117E5
:1004D8000AFB01F1AAFB002300FB0B11F7170B44E1
:1004E80008FB07F106FB0911A8FB06670F4479040E
:1004F8007004801841EAD6315941039BC3F5801E28
:100508007246D3170FFA8CF8002212184FEACE76EB
:100518004FEAC3774FEAC8034B4147EA5E07B61A6A
:1005280067EB030740F63543A6FB030103FB0711FE
:10053800DDE900232CF05CFBB4F916204E13470BC1
:1005480047EAC14702FB06FED31707FB03EEA2FBEF
:1005580007237344564307FB0366A2FB0723334470
:10056800560E46EAC3168219B4F914604FEA636757
:1005780041EB07037143F71700FB0717A6FB0001C0
:100588003944C60C46EA413692194FEAE1474FEA28
:100598001221B4F912207B4141EA036113010B4493
:1005A80000E000230DB11B0A2B60029B13B11A4611
:1005B800049B136007B0BDE8F08F00BF2030002017
:1005C800E07E002070CA0020704770472DE9F04394
:1005D800324A334F138A7D89B7F90490B7F90E80F0
:1005E800B7F800E0B7F920C05D1B3B895D43EC1309
:1005F800B7F91230B7F91450DB0225440A2693FBE9
:10060800F5F52544B7F90240FD616E43A5F57A6515
:1006180005FB05F36C4305FB09F5B7F90C90FF885A
:100628001B1308FB03F8E41203FB09F304EBE828A7
:100638001B14042403EB65331EFB04845569023341
:1006480004FA0CF49B1002344CF25032A5EBA404CB
:1006580003F5004342FA0CF27B4362434FEAD33777
:1006680047BFB2FBF7F35B005400B4FBF7F31A1271
:1006780040F6DE34524362430A4C5C43241404EBD4
:100688002242083602F6CF62361103EB221300B17C
:10069800036001B10E60BDE8F08300BF2030002088
:1006A8007C7E002043E3FFFF4FF480538382704732
:1006B8004FF48053838270474FF48053838270478E
:1006C800BFF34F8F0549064BCA6802F4E062134333
:1006D800CB60BFF34F8F00BFFDE700BF00ED00E028
:1006E8000400FA05036B10B5044663B9836D998954
:1006F8001A88890692B206D5900604D5E26A2AB30A
:10070800988880B29047626BA36DA2B999891A88BC
:10071800090692B20FD510060DD5A26A616A8A42FF
:1007280022D0A1692069895C99800132B2FBF0F17D
:1007380000FB1122A262998A1A88C90592B218D5BB
:10074800D20716D54FF6F7721A8012E09B88E26935
:100758006169DBB28B54E369E1680133B3FBF1F201
:1007680001FB1233E361CEE7DA6822F08002DA6037
:10077800E1E710BD426A806A131A5842584170472F
:100788004171704743799B070AD5436A8269D154FE
:10079800436A01690133B3FBF1F201FB123343628F
:1007A8007047427902F0020202F0FF0342B1036986
:1007B800426A806A013B101A1840C0B2181A704782
:1007C80018467047437913F001031FBFC36803F14C
:1007D800FF32C369006A1ABF181A104018467047DA
:1007E800437913F0010310B504460DD0FFF7EAFF73
:1007F80058B1236A6269E168D05C0133B3FBF1F256
:1008080001FB1233236210BD184610BD90F8433225
:1008180010B57BB990F8423290F84142A34209D210
:10082800B0F8481201229A400A430133A0F848223E
:10083800DBB2F3E710BD90F8372002F0FF0322B1D6
:10084800002380F83730012070471846704737B5C5
:100858000446056C94F84C10183006226B46A847DD
:10086800A8B19DF800209DF8013043EA02232385B2
:100878009DF802209DF8033043EA022363859DF822
:1008880004209DF8053043EA0223A385012003B024
:1008980030BD37B50446056A3B21083006226B4651
:1008A800A847A8B19DF800209DF8013043EA02232B
:1008B800E3829DF802209DF8033043EA0223238354
:1008C8009DF804209DF8053043EA02236383012044
:1008D80003B030BD0346012283F8232053F8043CBB
:1008E800143803B11847704708461BF0C5BB2DE9FB
:1008F800F8430F4B93E8800305460E460024B442A4
:1009080013DA7B1933F9140008EB050333F91420C3
:1009180009EB050333F914301344022293FBF2F375
:10092800C01A1BF0EBFC0134E9E7BDE8F88300BF0F
:100938004C6E002038B5044647201BF09DFB1D4B2C
:100948001B68DB0205D51C4B5B681868201A1BF076
:10095800C6FC1A4C1A4DA0791BF0C1FCE0791BF0BB
:10096800BEFC2B68A068C01A1BF0C8FC6B68E06866
:10097800C01A1BF0C3FC6423206990FBF3F01BF042
:10098800AEFCB4F920001BF0AAFCB4F922001BF05D
:10099800A6FC208D1BF0A3FCA08C1BF0A0FCE08C17
:1009A8001BF09DFCE3792B74A368AB60E368EB60F4
:1009B80038BD00BFB47000204C6E0020A472002027
:1009C800386E00202DE9F8435B4BDFF8E8911C688E
:1009D800002520602646A0462746584BB9EC010A58
:1009E800EB58BB62564BEB587B60564BEB583B6160
:1009F800554BEB58FB612CF0E9FF544BA8F8440029
:100A080004352B440C2D1B6BA8F84A30504B2B4453
:100A180007F10407DB69A8F8843008F10208DCD183
:100A280004F1320104F13A0200234A4830F8130075
:100A380021F8020F484830F8130022F8020F01335A
:100A4800042BF2D1454B1A88A4F850205A889B8869
:100A5800A4F85430424BA4F852201A88A4F856201F
:100A68005A88A4F858209A88A4F85A202246DB8885
:100A780022F85C3F3B4B197800238B4206DA3A4850
:100A880030F8130022F8020F0133F6E7374B1B88C2
:100A9800A4F87630364B1B88A4F87830354B9B6920
:100AA800E367354B1B69C4F88030344BDB69C4F805
:100AB8008C30334B1B88A4F89030324B5B89A4F8F8
:100AC8007030314B1B88A4F89230304B1B88A4F847
:100AD80094302F4B1B88A4F896302E4B22461B8847
:100AE80022F8983F00232C4951F8231042F8041F9C
:100AF8002A4931F81310A6F8A810294931F813101B
:100B0800A6F8AE10274931F81310A6F8B4102649F4
:100B180031F81310A6F8BA100133032B06F10206B8
:100B2800E1D1224B1B88A4F8C430214B1B88A4F8C0
:100B3800C630BDE8F88300BF4C6E00204C7400201E
:100B48002874002034740020407400205C030010D6
:100B5800807D00206A790020307200205801001042
:100B6800BE5A00205874002080820020EA7D0020B0
:100B780074A00020A07E00200C7F00204C7D002067
:100B8800AE5A00209E5A0020F64F00203E5000200A
:100B98003A5000203C500020485A0020545A002067
:100BA8001C50002038620020785000203850002067
:100BB8007E5000209001001070B5174B064618684B
:100BC800164B30601B683371154B93F828307371DE
:100BD800144B1B78B371144B1B78F37120F008F891
:100BE800044620F029F805462D011FF0EFFF45EADD
:100BF800840444F0010444EA80141FF0A3FF44EA8B
:100C080000241FF0C7FF44EA80241FF0B1FF44EA24
:100C18000030B06070BD00BFC4830020287200207F
:100C280058830020A3810020C88000207FB51D4C78
:100C380020B11D4B1B88B3F5805F2BDA194E01A834
:100C480006F11805FFF7B8FF01A829460C222CF079
:100C5800A7FC20B301AB03CBB06118686960A8603A
:100C680053201BF009FAA0691BF039FB207F1BF009
:100C780036FB637F0193A37F029301A8E37F03936D
:100C88001BF09DFA206A1BF02AFB074B00221A80F2
:100C9800012004E004F11800FFF78EFFE0E704B03C
:100CA80070BD00BF20300020D03F00208379406B0A
:100CB800DB0744BFB1FA81F1490909B114F0D3BE89
:100CC80014F0CCBE38B5054603200C4615F09FFB42
:100CD80007EE900A9FED0B7AF8EE677A27EE877A8F
:100CE8005DB1F8EE047AF0EE006AE7EE267A9FED41
:100CF800067A67EE877AC5ED007A0CB1034B23605C
:100D080038BD00BF6740533A00007A44331390431C
:100D180013B50C4C00944FF0FF302821FF22042318
:100D280015F026FA58B121786378074A43EA012377
:100D38001380A178E37843EA01235B11538002B062
:100D480010BD00BF087F00202030002007B5064BEB
:100D580000932821FF2204234FF0FF3015F008FAF2
:100D680003B05DF804FB00BF087F002030B587B0F2
:100D780000250DF10F03C5820583458304460093C2
:100D88004FF0FF300D210622012315F0F1F930B3A1
:100D98009DF80F3003F0040303F0FF00FBB104AB30
:100DA80000934FF0FF300D212A46062315F0E0F995
:100DB800A8B19DF811209DF8103043EA0223E38280
:100DC8009DF813209DF8123043EA022323839DF8EF
:100DD80015209DF8143043EA02236383012007B0ED
:100DE80030BD10B586B000220DF10F03C282028318
:100DF8004283044600934FF0FF300E21012315F083
:100E0800B7F930B39DF80F3003F0080303F0FF0083
:100E1800FBB104AB00934FF0FF300E2101220623F3
:100E280015F0A6F9A8B19DF810209DF8113043EAF5
:100E38000223E3829DF812209DF8133043EA02232F
:100E480023839DF814209DF8153043EA0223638319
:100E5800012006B010BD1FB502AB044600934FF049
:100E6800FF301E210322062315F082F918B9E0820B
:100E7800208360833DE09DF808209DF809309DF8A7
:100E88000A1043EA02231BB21B4A07EE903A92ED7E
:100E9800007AF8EEE77A012067EE877A92ED027A17
:100EA800FDEEE77A17EE903AE3829DF80B3043EABD
:100EB80001231BB207EE903AF8EEE77A9DF80C1082
:100EC80067EE877A92ED017AFDEEE77A17EE903AAF
:100ED80063839DF80D3043EA01231BB207EE903A75
:100EE800F8EEE77A67EE877AFDEEE77A17EE903A42
:100EF800238304B010BD00BF000000201FB503AB62
:100F080000937721002203234FF0FF3015F030F9CA
:100F18009DF80D309DF80C001B0243EA00439DF834
:100F28000E00184305B05DF804FB08B5FFF7E6FFAF
:100F3800014B986008BD00BF2030002008B5FFF7BE
:100F4800DDFF014B586008BD203000201FB503AB02
:100F580000937721F62203234FF0FF3015F008F9AC
:100F68009DF80D309DF80C201B0243EA02439DF8C2
:100F78000E201343054AB2F92020C2F10802D340DB
:100F8800034A536105B05DF804FB00BF7C7E002076
:100F9800203000201FB503AB00937721F6220223EF
:100FA8004FF0FF3015F0E4F89DF80C209DF80D3057
:100FB80043EA0223024A138205B05DF804FB00BF2E
:100FC8002030002037B50D461446009368212A4684
:100FD80023464FF0FF3015F0CBF803B030BD08B50D
:100FE8004FF0FF300D210B22012315F047F930B1E6
:100FF8004FF0FF300D2109221D2315F03FF900F0B5
:10100800010008BD30B587B000230DF10F05C3827C
:1010180003834383044600954FF0FF300C210222DE
:10102800012315F0A5F808B9002041E09DF80F301C
:10103800DB07F9D504AB00930C21032206234FF0FC
:10104800FF3015F095F800954FF0FF300C2109227C
:10105800012315F08DF80028E6D09DF80F3013F025
:101068000C0FE1D19DF811209DF8103043EA0223BE
:10107800C3EB83339B009DF81320E3829DF8123065
:1010880043EA0223C3EB83339B009DF81520238397
:101098009DF8143043EA0223C3EB83339B00638338
:1010A8004FF0FF300C210A22012315F0E7F8012048
:1010B80007B030BD4FF0FF3077214822012315F0EB
:1010C800DDB84FF0FF3077215822012315F0D6B84C
:1010D800064B93F820309B0134334FF0FF307721D3
:1010E800F42203F0FC0315F0C9B800BF7C7E002091
:1010F8004FF0FF307721F4222E2315F0BFB810B53A
:101108000C4613464FF0FF3022466821BDE81040D8
:1011180015F0B4B810B54FF0FF300E21102201239E
:1011280015F0ACF8044614201CF055F954B14FF0F2
:10113800FF300E211122A02315F0A0F804460A2042
:101148001CF049F9204610BD1FB50C210A220023C6
:101158004FF0FF3015F092F814201CF03CF90C21E8
:101168000A220F234FF0FF3015F088F80A201CF0F0
:1011780032F903AB00930C21102203234FF0FF3008
:1011880014F0F6FF0A201CF026F90C210A2200238D
:101198004FF0FF3015F072F80DF10B040A201CF027
:1011A8001AF900940C21022201234FF0FF3014F0A9
:1011B800DFFF00940C21092201234FF0FF3014F0C7
:1011C800D7FF0C210A2201234FF0FF3015F056F803
:1011D800012004B010BD2DE9F04F054687B032203C
:1011E8001CF0F9F81E21002219234FF0FF3015F0EA
:1011F80045F81E21012280234FF0FF3015F03EF8FC
:10120800642000241CF0E7F82846FFF724FE264651
:101218000094A246A046A3461E21022201234FF0B5
:10122800FF3015F02BF846201CF0D5F82846FFF7BC
:1012380012FED0B1B5F91A20B5F91810B5F9160093
:101248008A421346A8BF0B468342A8BF034613F53C
:10125800805F02DC0AF1010A07E0009B13440BF1EE
:10126800010B04440E44009301E008F10108BBF1AE
:10127800090F0BDD4FF000094FF0FF301E2100224F
:101288001A2314F0FBFF4F46CC460FE0B8F1040FC9
:10129800C2DDEFE7009B9B1A0CF1010C241A761AA9
:1012A8000093BCF1090F27DC042F28DC1E21022241
:1012B80001234FF0FF30CDF804C014F0DFFF4620C3
:1012C8001CF089F82846FFF7C6FDDDF804C088B190
:1012D800B5F91A20B5F91810B5F916008A4213465F
:1012E800A8BF0B468342A8BF034613F5805FD1DC35
:1012F80009F101090137D4E7B8F1040F1CDD0F2308
:10130800ADF80C3002A84FF40043ADF80E30CDF81C
:1013180014C0CDF810B014F02DFB1023ADF80C302C
:1013280002A848F20103ADF80E30CDF810800597F9
:10133800002514F01FFB02E0042FE0DC0125BAF1C0
:10134800000F02D1B9F1000F0DD01123ADF80C3008
:1013580002A848F20103ADF80E30CDF810A0CDF880
:10136800149014F007FB234B15B307EE904A9FED3A
:10137800227AF8EEE77AC7EE277AF0EEE77AC3ED3D
:10138800007A07EE906AF8EEE77AC7EE277A9FEDC3
:101398001B7AF0EEE77AC3ED017ADDED007AF8EE1C
:1013A800E77AC7EE277AF0EEE77AC3ED027A04E02F
:1013B8004FF07E521A605A609A601E2100227823EC
:1013C8004FF0FF3014F05AFF1E21012220234FF066
:1013D800FF3014F053FF1E21022200234FF0FF308C
:1013E80014F04CFF64201BF0F6FF284607B0BDE858
:1013F800F08F00BF0000002000801F4600801446C8
:10140800F8B504460D4D806816460F4614F026FBC5
:10141800012000211BF0CEFF3946284614F082FD3A
:101428003146284614F07EFDA06814F01CFB01200C
:1014380000211BF0BFFF0120F8BD00BF00300140B4
:10144800F8B504460D4D806816460F4614F006FBA5
:10145800012000211BF0AEFF3946284614F062FD3A
:101468003146284614F05EFDA06814F0FCFA01200D
:1014780000211BF09FFF0120F8BD00BF0030014094
:1014880013B50021044629F00FFA14201BF0A3FF1E
:101498000F21204629F008FA0A201BF09CFF01AB17
:1014A80010210322204629F019FA0A201BF093FF85
:1014B8009DF904209FED285ADFED285A284B06EEA7
:1014C800902AF8EEE66AF7EE007A76EEC56A9DF99C
:1014D8000520B0EE677AA6EEA57A0021204606EE32
:1014E800902AB3EE0E6AF8EEE66A27EE067A76EEF2
:1014F800C56A83ED037AB0EE677AA6EEA57A9DF900
:10150800062027EE067A83ED047A07EE102AB8EE55
:10151800C77A37EE457AE7EE257A67EE867AC3ED25
:10152800057A29F0C1F90A201BF055FF0DF10303D4
:1015380020460221012229F0D1F901220DF10303ED
:101548002046092129F0CAF92046022129F0ACF9E0
:10155800012002B010BD00BF000000430000803B26
:10156800000000202DE9F0410C4D044688468068B3
:1015780016461F4614F072FA48F08001284614F007
:10158800D1FC394600223346284614F09BFCA0685B
:1015980014F069FA0120BDE8F08100BF0030014075
:1015A8002DE9F0410C4D04468846806816461F46D2
:1015B80014F054FA48F08001284614F0B3FC394678
:1015C80000223346284614F07DFCA06814F04BFA3C
:1015D8000120BDE8F08100BF0030014010B5064C85
:1015E800207838B11BF0A4FEA368C01AC0F5FA50E1
:1015F80020EAE07010BD00BF90A40020F8B50446B2
:101608000F46FFF7EBFF002802DDC1171BF0D2FEE3
:101618000A4B20695E7800251D7014F01FFAC92155
:10162800074814F07FFC39462A463346044814F02C
:1016380049FC206914F017FA0120F8BD90A4002095
:10164800003001402DE9F7434E4D2B68C0F81630A5
:1016580000F11606AB88B38007464FF00109002059
:10166800DFF82C8198F82A30012B44460DD002D39C
:10167800022B1ED024E0444B1B7823B938460221A4
:10168800012229F05FF9012328E0FFF7A7FF50BBEB
:1016980038466946FFF7B2FF9DF8003008B19B074E
:1016A80013D1002388F82A30B9F1000F0BD09946DE
:1016B800D6E7FFF793FFB0B938466946FFF79EFFB4
:1016C8009DF8062090B9002057E02F4B1B7823B9CE
:1016D80038460321072229F035F9022384F82A30F5
:1016E80094F82B004BE098F82B0048E012F0030226
:1016F800E9D19DF801109DF800309DF8030084F8A9
:101708002A2043EA01231BB2204907EE903A91EDC3
:10171800037AF8EEE77A67EE877A91ED047AFDEEC0
:10172800E77A17EE903AFB829DF8023043EA0023ED
:101738001BB207EE903AF8EEE77A9DF8050067EEDF
:10174800877A91ED057AFDEEE77A17EE903A3B83BA
:101758009DF8043043EA00231BB207EE903AF8EEF6
:10176800E77A012067EE877AFDEEE77A17EE903A7E
:101778007B8333686362B388AB8084F82B0003B043
:10178800BDE8F0834430002090A400200000002031
:101798002030002038B5A0F515746379A579DB07EA
:1017A80040D594F8403205F00105EBB1A06B026812
:1017B800D36A5B08536294F8443223B1B4F84A32CE
:1017C8000133A4F84A3285F0010129F043F80123D6
:1017D80084F84332002384F8413284F8423284F892
:1017E8004032A4F8483238BD94F84332012B04BF84
:1017F80094F8413284F842322046FFF707F894F80B
:10180800433233B9012384F84332A06B85EA0301DC
:1018180004E00023A06B84F843322946BDE8384031
:1018280029F018B838BD10B5A0F5147494F84422FE
:10183800BAB9A36A616A994228D0591CA069A16201
:10184800C35C2069DBB25B0043F400738142A4F8F7
:1018580046324FF00A0384F8453228BFA2620123BA
:1018680012E094F945327BB1B4F846124B08A4F85B
:101878004632204601F00101FFF718FA94F8453284
:10188800013B84F8453201E084F8443294F8403250
:10189800002B4BD194F841320133DBB2092B84F889
:1018A800413204D12046BDE81040FEF7AFBF0A2BF5
:1018B8003CD194F843322BB9B4F8483243F00103D1
:1018C800A4F848326379D9071CD5B4F848028205D0
:1018D80001D4C30705D4B4F84C320133A4F84C3210
:1018E80010E0E36AC0F347000BB198470AE0E369E8
:1018F8006269D054E369E1680133B3FBF1F201FB9B
:101908001233E361012284F8402294F84322002331
:10191800012A84F8413209D1A17984F84332A06BB5
:1019280001F00101BDE8104028F094BF10BDC36B61
:10193800F7B50646002B77D0187814F067F80446F8
:1019480028B1142383710823C3710023037220462E
:10195800002114F07FF9354B7361204614F02AF901
:10196800002855DB324B334F143643F820603D5C7A
:10197800204614F029F90646204614F01BF9C0B297
:1019880000F0030200F0FC0000F1804303F59C33F3
:10199800920098680F21914020EA010199609968A6
:1019A800F6B296400E439E602CB1204614F002F920
:1019B8000122824000E022461F4B5A611868D14339
:1019C8000840186058680840586018681043186044
:1019D800986808409860D8680140D96017490B6832
:1019E8001A43174B0A605A5DF02A11DDF0225A5546
:1019F8003D4401A82B7C8DF8043003238DF8053075
:101A080000238DF8063001238DF8073028F0C6FE34
:101A180054B1204614F0CEF8012313FA00F01FBF8A
:101A2800054A13681843106003B0F0BDDD080008CC
:101A38004037002050EC0208003C0140083C0140BF
:101A480080370020F8B54A4F0546FFF770FF97F832
:101A58002C6005F11804002E67D14648314614F071
:101A680000FA6B2180222046FFF7EAFC96201BF043
:101A7800B2FC682103222046FFF7E2FC96201BF007
:101A8800AAFC03226B212046FFF7DAFC0F20002175
:101A98001BF090FC10226A212046FFF7D1FC0F2092
:101AA80000211BF087FC32466C212046FFF7C8FC5A
:101AB8000F2000211BF07EFC95F8362019212046C6
:101AC800FFF7BEFC0F2000211BF074FC18221B211D
:101AD8002046FFF7B5FC0F2000211BF06BFC1022FD
:101AE8001C212046FFF7ACFC0F2000211BF062FCF4
:101AF800102237212046FFF7A3FC0F2000211BF0FE
:101B080059FC012238212046FFF79AFC0F200021BA
:101B18001BF050FC1748032114F0A3F90120002101
:101B28001BF048FC012387F82C301248002114F0E0
:101B380098F995F834201A212046FFF781FC0120F6
:101B480000211BF037FC0B48032114F08AF92846C2
:101B5800FEF77DFE95F92A30013308D195F9283032
:101B6800013304D10620BDE8F8401BF06DBCF8BD78
:101B7800203000200030014038B5044604F1180533
:101B8800FFF7D5FE636C6B218022284698476420B6
:101B98001BF021FC636C68210722284698476420C3
:101BA8001BF019FC636C6B210022284698476420BF
:101BB8001BF011FC0122636C6B21284698470F200B
:101BC8001BF009FC94F83530012B8CBF1A2218221F
:101BD800636C1B21284698470F201BF0FCFB636CA5
:101BE8001C211022284698470F201BF0F4FB636C39
:101BF80094F834201A21284698470F201BF0EBFB55
:101C0800636C94F8362019212846984764201BF005
:101C1800E2FB636C37211022284698470F201BF0FF
:101C2800DAFB636C28463821012298470F20BDE86B
:101C380038401BF0D0BB38B50F4C05460121204673
:101C480014F00FF9002101201BF0B4FB2846FFF720
:101C580093FF6A21102205F11800FFF7D1FB6420D9
:101C68001BF0B9FB2046032114F0FBF801200021EA
:101C7800BDE838401BF09EBB003001400C4A0D49BE
:101C880013880968013313800B4A13680133136002
:101C98000A4A138801339BB28B42138001BF002389
:101CA8001380074A138804BF01331380704700BFAD
:101CB800D03F0020603F0020EC510020EA51002076
:101CC800B870002038B5284B1B78093B012B054616
:101CD8000C4647D845201AF0CFF928461AF0CCF917
:101CE8000E2D11D003D86DB10D2D15D038BD282D6E
:101CF80033D0FF2D2CD01E2D34D120681AF0EFFAE6
:101D0800606805E0206803E020681AF0E8FAA06837
:101D1800BDE838401AF0E3BA637820788BB180F0D8
:101D280080001AF0A9F9A468E0B21AF0A5F9C4F382
:101D380007201AF0A1F9C4F307401AF09DF9200E04
:101D48000CE01AF099F96068BDE838401AF0D6BA84
:101D5800064B074819781AF011FB0020BDE83840F7
:101D68001AF08AB938BD00BFE45B002068C90020BA
:101D7800E01D03082DE9F04F984B994C82461888CE
:101D88008BB08B469946002840F040812378012B80
:101D980005D1944A637810681A1A5042504100F0ED
:101DA8000100914EFEF742FF59465046FEF70AFEE3
:101DB800346849201AF060F98C4B254618681AF0E7
:101DC8008EFA55F8280B1AF08AFA284628F04CFEA5
:101DD800201D28F049FE04F1100028F045FE04F10A
:101DE8001C081127824D01232A68BB40134203D0E7
:101DF800D8F800001AF082FA0137142F08F1040805
:101E0800F0D104F1340004217A4F1AF07BFA04F17E
:101E18003C0003211AF076FA3B88B4F94200C01A54
:101E28001AF05DFA2B6813F4005FB84608D0724BBD
:101E3800B4F876001B88181AC0F30D001AF04FFA90
:101E48002B685B0403D5B4F878001AF048FA2B68BD
:101E58005F0504D504F1840003211AF053FA2B68B6
:101E6800180502D5E06F1AF049FA2B68D90403D592
:101E7800D4F880001AF042FA2B681A0403D5D4F873
:101E88008C001AF03BFA2B68DB0303D5B4F89000FA
:101E98001AF025FA04F1440003211AF033FA04F188
:101EA8004A0003211AF02EFA04F1500003211AF017
:101EB80029FA2B689F0204D504F1560004211AF070
:101EC80021FA2746B8F8003037F95E0FC01A1AF021
:101ED80006FA4A4B93F800904FF00108C84509DA12
:101EE80037F9020FB4F95E30C01A1AF007FA08F190
:101EF8000108F3E72B68980505D5B4F97000A0F23E
:101F0800DC501AF0FBF9B4F992001AF0F7F9B4F8BA
:101F180094001AF0F3F9B4F896001AF0EFF9B4F84F
:101F280098001AF0EBF9D4F89C001AF0E7F9D4F805
:101F3800A0001AF0E3F9D4F8A4001AF0DFF9B4F914
:101F4800A8001AF0DBF9B4F9AA001AF0D7F9B4F925
:101F5800AC001AF0D3F9B4F9AE001AF0CFF9B4F91D
:101F6800B0001AF0CBF9B4F9B2001AF0C7F9B4F915
:101F7800B4001AF0C3F9B4F9B6001AF0BFF9B4F90D
:101F8800B8001AF0BBF9B4F9BA001AF0B7F9B4F905
:101F9800BC001AF0B3F9B4F9BE001AF0AFF9B4F9FD
:101FA800C4001AF0ABF9B4F9C6001AF0A7F9326800
:101FB80013487260B260121AD110124A4A43531C75
:101FC800032293FBF2F202EB42029A1AC82303FBA4
:101FD800020333600C4B01221A7064E2EA510020BC
:101FE80048800020603F00204C6E0020EC5100200B
:101FF800B47000208E820020B07000205874002039
:10200800586E0020295C8FC2E03F0020874B884A29
:102018001B6811688B4206D00AA9002041F8203DB0
:102028001360FFF74FFE834E834D30462946042246
:102038002BF0B6FA48B12B6803930AA933682B60D2
:1020480041F8203D1E20FFF73DFE2178B9F8003009
:1020580060780B44013BB3FBF0F200FB12338B4278
:1020680080F0E7810120FEF7E1FD744F59465046A4
:10207800FEF7A8FC502097E8600019F0FDFFBA6849
:102088003B6810681B687A6803441068A3EB40003B
:102098001AF034F905F1280106F1280202A828F0FF
:1020A800F0FC02A828F0E0FC291D321D02A828F047
:1020B800E8FC02A828F0D8FC05F1100106F110028E
:1020C80002A828F0DEFC02A81AF079F8112405F11C
:1020D8001C0106F11C025A4B012000FA04FE186884
:1020E8001EEA000F984608D0086813680191C01AC4
:1020F80000921AF003F90199009A0134142C01F1A5
:10210800040102F10402E6D105F1320006F13201C0
:10211800002331F9024F30F9022F121B02AC44F8A8
:1021280023200133042BF4D1204619F0DFFF05F1F9
:102138003A0006F13A01002331F9024F30F9022F33
:10214800121B02AC44F823200133042BF4D120469F
:1021580019F0CCFFD8F8003013F400541FBFB5F8BD
:102168007620B6F87610521A029218BF0124590444
:102178000AD50AAA02EB8401B6F87800B5F87820E7
:10218800121A41F8202C01345A0515D502AA02EB7F
:102198008402009205F1820E06F1820000223EF9C7
:1021A800021F30F902CFCCEB010C009941F822C094
:1021B8000132032AF3D10334180508D50AAA02EB21
:1021C8008400F16FEA6F521A40F8202C0134D904C8
:1021D8000AD50AAA02EB8400D6F88010D5F8802028
:1021E800521A40F8202C01341A040AD50AAA02EB24
:1021F8008400D6F88C10D5F88C20521A40F8202C80
:102208000134DB030BD50AAB03EB8402B6F890105C
:10221800B5F890305B1A42F8203C013400E064B312
:10222800012C0FD102981AF069F826E0F07200200C
:10223800BC700020C4830020C07000204C6E0020B9
:10224800B4700020621E002002AB400053F8223018
:10225800C0B20BB140F0010012F1FF32F4D219F014
:102268000BFF002302AA52F8230018B100931AF0BA
:1022780045F8009B0133A342F4DB44200321FEF719
:1022880036FB4A200321FEF732FB50200321FEF7DC
:102298002EFBD8F80030980203D556200421FEF70B
:1022A80026FB824B5E201978FEF721FBD8F8003018
:1022B800990506D5B5F97000B6F97030C01A1AF04C
:1022C8001DF8B6F99230B5F99200C01A1AF016F84E
:1022D800B6F89430B5F89400C01A1AF00FF8B6F8AA
:1022E8009630B5F896002C46B046C01A1AF006F893
:1022F80038F8983F34F8980FC01A19F0FFFF05F125
:10230800A40354F8040F58F8042F0093801A19F006
:10231800F5FF009B9C42F4D1002404F154023B6871
:10232800B96833F912007B6833F912E031F91230D9
:1023380001347344022293FBF2F3C01A19F0DEFF52
:10234800032CEAD100243A6804F154035B001A44D0
:102358000134B2F906007A681A44B2F90610BA686C
:102368001A44B2F9063002220B4493FBF2F3C01A66
:1023780019F0C4FF032CE6D100243A6804F158038D
:102388005B001A440134B2F904007A681A44B2F9BD
:102398000410BA681A44B2F9043002220B4493FBC1
:1023A800F2F3C01A19F0AAFF032CE6D14FF0000887
:1023B8003B683F4C08F15C025200134408F10108E5
:1023C800B3F902007B681344B3F90210BB681A44DE
:1023D800B2F9023002220B4493FBF2F3C01A19F04F
:1023E8008DFFB8F1030FE3D1B6F9C430B5F9C400D5
:1023F800C01A19F083FFB6F9C630B5F9C600C01A7D
:1024080019F07CFF21682B4863686160091ACA10BB
:102418002949A36051434B1C93FBF8F808EB480883
:10242800C8EB0302C82303FB02032360234B0122EA
:102438001A70234B1B681A0635D5224B224C1A6892
:10244800216891421D460ED162685B689A420AD1A2
:102458001E4AB9F800301268B3EB520F11D11C4B69
:102468001B885B060DD1482019F006FE206819F07C
:1024780045FF606819F042FF23682B6063686B6052
:102488000DE0144B297CD8790E4A884207D1986808
:102498009168884203D1D968D368994203D05046DD
:1024A8005946FEF747FA0BB0BDE8F08F5874002084
:1024B8004C6E0020586E0020295C8FC2E03F00203F
:1024C800307D0020386E002050C90020603F002079
:1024D800B8700020A47200202DE9F74F0E9F4F4CD2
:1024E800C2EB030B0D9BFF1A6368002914BF4FF062
:1024F80006094FF0040901338246164637D123688E
:102508004B4580F08780464A019102EB8302009395
:10251800D2F8188040462BF09BF80B3019F04EFD8E
:10252800009B0199054608B1012074E0032B98BF70
:10253800514642463B4819F021FF3B4A1368181A96
:102548006368106001336360384B83F82D500EE0E8
:102558000D9A92B103FB07F20D99895C01228A401A
:10256800334909680A4208D16368013363606368C4
:102578000C9A2A4D9342EBDB34E003FB0BF52368FE
:1025880006EB050A2BB970592BF062F800F1050823
:1025980001E04FF00308404619F010FD0028C3D1B0
:1025A800214A224B1068C8EB0000106093F82D20D8
:1025B8001AB12C2019F060FD02E0012283F82D20C9
:1025C800236843B9705919F02BFD9AF904104B1C74
:1025D800CAD0184803E09A4417489AF8041019F02A
:1025E800CDFEC1E710D1012019F0E8FC60B90E4A10
:1025F80013680A20013B136019F03EFD2B68013374
:102608002B604FF0FF336B60206848452CBF0020DB
:10261800012000E0002003B0BDE8F08FD43F002087
:1026280050EC0208FE1D0308DC3F0020203000208B
:10263800B47000200D1E030864220308044B1B68B5
:1026480013F0100F034B186808BF1E30704700BF07
:10265800287200202C72002010B540208EB019F08E
:10266800ADFC002840F00E82844C2368362B00F223
:102678000B82DFE813F037003B00420047005500AB
:1026880059005F00630068006D00730078008300E4
:102698008B008F009C00A100A500A900AF00B4002A
:1026A800B900BF00C400CA00D200DA00E200EA00A4
:1026B800F200FA0075017D0183018E0195019C01EC
:1026C800A301A901AF01B301B701BB01C001C60154
:1026D800CC01D301D801DD01E201E701EC01F101F0
:1026E800F601FB0166486749674A16E0674B0093A5
:1026F80067486849684A694B48E1694869496A4ACC
:102708006A4BBAE103A814F0BFF903A9002206A88E
:1027180014F0A2FA66485B4906AA19F000FEAEE179
:1027280064485849644AF8E7644B65481A7865492B
:102738005B78A2E164486549654B64E0644B654891
:1027480062495A88E9E7644864494FF07E52E4E7F1
:102758005F4B63481A8863495B888EE1624B634824
:1027680063499A8AD9E7634B1B689A0403D5624880
:102778005F49624B5AE10D23236080E15F4960485D
:102788000A794B79C97800915E49FFE05E4858495B
:102798005E4B38E05E4B1B681B0540F17081574B60
:1027A8005C48B3F908204F49B3F9063065E118F0E1
:1027B80015FA02465848DFE058484449584B07E0A4
:1027C800584842496422A8E7574B58481B683F4974
:1027D8009A78A2E7544B56481B683C4930E1524B63
:1027E80054481B68394926E14F4B53481B68374901
:1027F8001A7992E74C4B51481B68344925E14A4BFA
:102808004F481B6831491A8887E7474B4D48196874
:102818004A798B79C9790091B7E0FFF70FFF817882
:102828000278437800914848AFE0FFF707FF417905
:10283800C278037900914548A7E0FFF7FFFE017AC7
:102848008279C379009142489FE0FFF7F7FEC17A89
:10285800427A837A00913F4897E0FFF7EFFE817B49
:10286800027B437B00913C488FE0FFF7E7FE417C09
:10287800C27B037C0091394887E000BFD43F002029
:10288800121E0308A1320308201E03085C1E030859
:102898002C1E03083E1E03084E1E0308541E030880
:1028A800721E0308BC330308801E03088C1E03082D
:1028B800951E0308A81E0308157E002048800020E6
:1028C800B31E030859220308BE1E03086422030826
:1028D8008E820020CA1E0308D61E0308B42C0308E3
:1028E800E11E0308941F03085C030010ED1E030893
:1028F800443E0308B4700020F41E0308D67D00206F
:10290800FF1E03080F1F0308181F0308B0700020DC
:10291800307D0020201F03082D1F0308361F0308E1
:10292800405B0020461F0308387200204E1F030832
:10293800561F0308621F03086A1F0308731F030852
:102948007C1F03088B1F03089A1F0308A21F030894
:10295800AB1F0308B21F0308B91F0308C01F0308F1
:10296800FFF76CFEC17D427D837D009148480CE0F5
:10297800FFF764FE027E47484749CEE6FFF75EFE52
:10298800C27E037F417F45480091454919F0C7FC45
:1029980075E0444B44481B683F49B3F84420BCE603
:1029A800404B42481B683C4993F84320B5E63D4BF1
:1029B8003F481B68384993F84020AEE6394B3D48FC
:1029C8001B6835499A8FA8E6364B3B481B68324945
:1029D800DA8FA2E639483049394B27E039482E4981
:1029E800374B1EE038482C49384B38E0374B3848CD
:1029F8002949DA7991E6354B36485A893649DB89CF
:102A08003BE0324B35489A8933491B8A35E0254BE0
:102A180033481B68204993F842207EE631481E4916
:102A2800314B5A7879E631481B49314B1A7874E6AC
:102A380030481949304BDA786FE630481649304B40
:102A48005A7A6AE62F4814492F4B1A7A65E62E4BB4
:102A58002E481149DA8860E62D480F492D4B9A799E
:102A68005BE62D4B2D480C491A6856E62C4B2D4831
:102A780093F94D27184993F84C3719F050FC2368FF
:102A880001332360002000E001200EB010BD00BF1C
:102A9800C81F0308D11F030864220308CA1F0308BC
:102AA800911F03082C720020D81F0308E41F030895
:102AB800EF1F0308FC1F03080B200308222003084C
:102AC800E48300201E2003082B200308405B00201D
:102AD8003420030840200308941F03084E200308ED
:102AE800602003086B200308F87D00207820030885
:102AF800787E002086200308307F0020932003087A
:102B080018790020A52003088E820020B820030829
:102B1800C72003080A7E00204C5C0020904F030861
:102B280088BF0020D220030838B5064C03460D465E
:102B38002046194613F0F6F920462946BDE83840E4
:102B480013F0F0B9003C0040F8B52A4D2A4C28682B
:102B58000126267012F082FF00210520FFF7E4FF0E
:102B680000210620FFF7E0FF04203146FFF7DCFFD5
:102B78000023224A11885F1C9BB29942164608D945
:102B88001F4A32F813100720090AFFF7CDFF3B460A
:102B9800EFE7FF210720FFF7C7FF02210520FFF716
:102BA800C3FF00210620FFF7BFFF04200121FFF724
:102BB800BBFF002332885F1C9BB29A420AD9104A95
:102BC80012F813108900072001F0FC01FFF7ACFF91
:102BD8003B46EFE7FF210720FFF7A6FF286812F022
:102BE80042FF084800213C222AF005FD00232370FB
:102BF800F8BD00BF445C0020435C00200C2E002080
:102C0800A03B002030400020F8B5264C206812F088
:102C180025FF254B1B78012B2746244C02D0022B7D
:102C280008D001E0482306E0A0200021FFF77CFF40
:102C3800830701D508232370237813F0400F1C4B1A
:102C480017BF4FF4F0724FF4C3721A80102604BFF6
:102C58001A800D260025ABB2B34207D205F1100049
:102C6800C0B20121FFF760FF0135F4E721780020A9
:102C7800FFF75AFF04200146FFF756FF386812F0A5
:102C8800F2FE3C220B48FF212AF0B5FC0A4B1A7EC3
:102C98001C4632B1094B1B780BB9FFF755FF0023CF
:102CA8002376F8BD445C00209C3B00200B0A0020E2
:102CB8000C2E00203040002000000020435C002043
:102CC8002DE9F74F6C4A0192137803F0FF06002BA9
:102CD80040F0CF8069496A4CB1F800C0694994F85E
:102CE800322094F8339094F834A0A36BB1F80080A4
:102CF800374638B2202800F09B80634D05EB8003EF
:102D080035F82050D9789B78C3F1FF039BB2002B8C
:102D18006AD0C3F1FF034B433C201B12B5FBF0FB09
:102D2800BBF1050F63D8DFE80BF00310212E404EEE
:102D38005FFA83FAC3EB010905FB09F9B9FBF0F95E
:102D4800D1445FFA89F90A4651E0B5FBF0F200FB7D
:102D5800125292B25FFA83FAC2F13C02CB1A534381
:102D6800B3FBF0F25244D2B2894640E0B5FBF0F929
:102D780000FB1955DAB2ADB2CB1A6B438946B3FBE7
:102D8800F0F010442EE0B5FBF0F900FB19591FFADA
:102D980089F9DAB2C9F13C09CB1A09FB03F9B9FB85
:102DA800F0F991445FFA89F922E0B5FBF0FA00FBEB
:102DB8001A555FFA83F9CA1AADB26A43B2FBF0F248
:102DC8004A44D2B214E0B5FBF0F200FB1255ADB2A2
:102DD8005FFA83F9C5F13C05CB1A6B430A46B3FB8E
:102DE800F0F04844C1B203E089460A4600E0514683
:102DF800150245EA09450D43172306F117004FF060
:102E0800010A0AFA03FAC01A1AEA050F80B2DFF8B3
:102E18008CA00CBFC346E34613F1FF334AF820B039
:102E2800EBD218360137B6B2BFB2184B8A4660E704
:102E380084F83220019AA36301231370144BE685AA
:102E48001B7884F8339084F834A020868BB1114B1A
:102E58001A6840F22A3353600F4B196800234B62FB
:102E68000B889BB243F001030B80136843F0010306
:102E7800136003B0BDE8F08FBDCA00207C4D002070
:102E8800203000207E4D00207AC9002052300020DA
:102E9800B8CA0020804D0020744D0020CC4000208E
:102EA800F8B504460D4D006816460F4612F0D6FDDB
:102EB800012000211AF07EFA3946284613F032F82C
:102EC8003146284613F02EF8206812F0CCFD012078
:102ED80000211AF06FFA0120F8BD00BF0030014050
:102EE8002DE9F0410C4C0D4D8046206817460E46E2
:102EF80012F0B4FD48F08001284613F013F8394663
:102F080000223346284612F0DDFF206812F0ABFDA0
:102F18000120BDE8F08100BFD87E0020003C0040C1
:102F280007B506216A46F720FFF7DAFF9DF800305B
:102F38009DF801201B0343EA02139DF8022043EA8F
:102F48001213094A13609DF803309DF804201B03EF
:102F580043EA02139DF8052043EA1213034AD3609B
:102F680003B05DF804FB00BF70CA002020300020C9
:102F7800F8B50A4C0A4D074620680E4612F06EFD59
:102F880007F07F01284612F0CDFF3146284612F09F
:102F9800C9FF206812F067FD0120F8BDD87E002027
:102FA800003C0040F4203121E2E70448D0F8AC317D
:102FB80013B100F5D2701847704700BF1008002001
:102FC8000348D0F8903113B100F5C4701847704722
:102FD800100800200348D0F8743113B100F5B6701A
:102FE80018477047100800200348D0F8583113B12B
:102FF80000F5A87018477047100800200348D0F85B
:103008003C3113B100F59A7018477047100800203A
:103018000348D0F8203113B100F58C701847704779
:10302800100800200348D0F804310BB1FC301847D1
:10303800704700BF100800200348D0F8E8300BB1F3
:10304800E0301847704700BF100800200348D0F848
:10305800CC300BB1C4301847704700BF10080020AF
:103068000348D0F8B0300BB1A8301847704700BFFC
:10307800100800200348D0F894300BB18C30184762
:10308800704700BF100800200248836F0BB17030F2
:1030980018477047100800200248C36D0BB1543020
:1030A80018477047100800200248036C0BB13830ED
:1030B80018477047100800200248436A0BB11C30BB
:1030C80018477047100800200248836803B1184762
:1030D800704700BF100800200B4B984212D0A3F590
:1030E800806398420ED003F5804398420AD003F5D6
:1030F8008063984206D003F5806398420CBF012094
:10310800022070470120704700040140024B586FAD
:10311800C0F30070704700BF0038024008B5054B87
:103128001B6803B19847044B044A1A6072B6FDF74E
:10313800C7FA00BF843B0020FCFF0120EFBEADDED4
:1031480008B5034B1B6803B1984772B6FDF7B8FA88
:10315800843B00200148FDF7C5BA00BF20000020CD
:103168000148FDF7BFBA00BFA40200200148FDF7DF
:10317800B9BA00BF280500202DE9F3479A46494B04
:10318800914603EB80020546146B002C00F0848006
:103198004833636004F16E03A36104F5B773E1601B
:1031A800E361A16E226E4FF480732361636123682B
:1031B800E365271D09B1E263616304332264626E2B
:1031C800A2636365A36594F86D0012F01FFC0646C0
:1031D80094F86C0012F01AFC804694F8740208B156
:1031E80027F0A2FA94F8750208B127F09DFAD4F8EE
:1031F80070321BB12C4A116B0B4313631AF0080F82
:103208000FD00135EDB21EB10723B371F3713572DA
:103218001AF0100F304694F8762214BF02211221BA
:1032280024E019F0020F0DD06B1CDBB226B1072287
:10323800B2710522F27133723046022194F8762277
:1032480012F0CDFC19F0010F12D00135EDB2B8F132
:10325800000F07D0072388F80630062388F80730C0
:1032680088F8085094F876224046022112F0B7FCFC
:10327800E26B9AB994F878328DF80430D4F8803239
:103288008DF806209B098DF8053001A801238DF8DB
:10329800073027F083FA01E0204600E0384602B004
:1032A800BDE8F08750EC0208003802402DE9F74FDE
:1032B8005D4D1F464FF4167305F13C0803FB00F4FF
:1032C80082468946934608EB040648B9382027F019
:1032D800DAFA2C446067392027F0D5FAC4F8780167
:1032E8004FF4167303FB0AF3EC185049E16308EB3B
:1032F8000302032184F841103C324FF4807103F536
:10330800A073C4F86890A1642265E1640022434474
:103318000121D4F87891E265A26563656266226648
:1033280084F8802284F87C1284F87D22A4F886220E
:10333800A4F88822C4F844B084F8427084F88AA2B9
:1033480099F8040012F062FB206799F8040012F063
:103358005DFB0AF10104E4B218B105238371C3715E
:1033680004724FF4167909FB0A59012112F072FC14
:10337800D9F874300193187912F048FB019BC9F809
:103388006C00187912F042FB20B1052383710623E3
:10339800C3710472222112F05DFC30460121FDF751
:1033A80085FC32201AF017F84FF4167303FB0A5302
:1033B800D3F878911E4B1B681A46B2FBFBF1B1F5A6
:1033C800803F03D3012AF8D95208F6E7484689B264
:1033D800184AB3FBF2F2D2B219F06EFF4FF416702E
:1033E80000FB0AF0054400F51470134BC5F88C3245
:1033F80008EB000421464846002219F0B5FE05F501
:10340800237A6D6F07F00101284627F023FA0B4B4A
:10341800CAF804302846211D002219F0A5FE3046BE
:1034280003B0BDE8F08F00BF20300020C0EC0208D8
:10343800B807002040420F002F1800089D17000809
:1034480003460A4690F84E02D96A9B792EE782B065
:103458000023414A00930193136843F480331360B7
:103468003D4B1A6802F400320192009A0132009230
:10347800019A1AB9009AB2F5A04FF1D11B6813F45A
:10348800003318BF01230193019B012B30D1324B2C
:1034980032491A6C42F080521A640A6842F4404277
:1034A8000A609A689A609A6842F400429A609A6838
:1034B80042F4A0529A602A4A5A601A6842F080720E
:1034C8001A601968244A8901FBD5264B40F2057118
:1034D8001960936823F003039360936843F0020331
:1034E80093601D4A936803F00C03082BF9D101E09F
:1034F80000BFFDE793681C4903F00C03042B03D0BD
:10350800082B03D0194B18E0194B16E05068536884
:1035180010F4800F03F03F03506814BF144A134A95
:10352800B2FBF3F30C4A5268C2F30142C0F38810AD
:10353800013243435200B3FBF2F30B60064B0D4AD2
:103548009B68C3F30313134493F8A8270B68D3406D
:103558000B6002B0704700BF0038024000700040A6
:1035680008544007003C0240B80700200024F4003B
:1035780000127A000000002010B5104CD4F88830F2
:1035880043F47003C4F888300D4B1A68002142F0E8
:1035980001021A6099601A6822F0847222F480325B
:1035A8001A60084A5A601A6822F480221A60D960A0
:1035B800FFF74DFF4FF00063A36010BD00ED00E082
:1035C80000380240103000242DE9F04F2DED028B19
:1035D800A54CA64FDFF82C830026A1B031464FF446
:1035E800806220463E702AF006F8A14BC4F80834E1
:1035F800C4F8006484F80464C4F80C64FFF727FF77
:103608009C4BC8F80C309C4B9C485A6FC4F810244B
:103618009B4AC8F808205A6B22F080025A635A6FF6
:1036280042F080725A67196B964A0A431A635A6BBA
:103638005A639A6B9A63196C934A0A431A64596CD1
:10364800924A0A435A6420AD01238DF8473048F264
:10365800FF7345F8403D29464FF6FF798DF84460E1
:103668008DF845608DF8466021F0D2F829468848E3
:10367800CDF8409021F0CCF829468648CDF8409006
:1036880021F0C6F82946844821F0C2F82946834823
:1036980021F0BEF82946824821F0BAF82946814827
:1036A80021F0B6F82946804821F0B2F829467F482B
:1036B80021F0AEF8284621F067F87D4A109B7D4935
:1036C800B3FBF1F3C4F81834D368C4F81C6443F0AE
:1036D8008073D360784A794D136843F0010313600F
:1036E8002B68C4F820644FF47A72B3FBF2F3013B01
:1036F800B3F1807FC4F8246407D2714A5360F02381
:1037080088F823300723966013606E4800216E4EB8
:103718008A0202F1804236F811E002F500320023F5
:10372800B0464EFA03F6F60744BF01269E4003F161
:10373800010342BF026086800C30102BF1D10131A9
:103748000429E4D1614B1B787E2B04D016F037FF97
:1037580016F086FB03E012F0B2FF0028F6D05C4EAC
:1037680016F0C6FCF379032B11D8DFE803F0080B39
:1037780002052B68574A07E02B68574A04E02B6874
:10378800564A01E02B68564AB3FBF2F36B600020FF
:10379800014612F030F93B78B279524D43F00103FB
:1037A8003B70514B1A70514B00201B682B6026F060
:1037B800E7FF00234E4A52F823005E1C38B1172356
:1037C80083710223C3710672012112F043FA032E9A
:1037D8003346EFD1002026F0D3FF274ADFF8889040
:1037E800536C444E43F4804353640021402209F54E
:1037F800856029F000FFFF21072209F58D6029F077
:10380800FAFE0120002112F0F6F83378032B11D1CB
:10381800737A012B0ED8777DFFF778FC824648B97A
:10382800013F092F41F2E38604E09AF81630012B94
:1038380001F016874FF4FA7019F0CDFD2E480021DB
:103848004FF4A07229F0D7FE00272C4BF95800231B
:103858002B4850F833208A424FEAC30E54D100EB6C
:103868000E03187954E000BF18330020BECA0020A8
:103878008D5801080005FA05003802400000024092
:1038880000000008FF916700FFC9FE36335F07009C
:103898000004024000080240000C024000100240F0
:1038A8000014024000180240001C024000200240A0
:1038B800F0ED00E040420F00001000E0B8070020E3
:1038C80010E000E090A10020E8EC020800000E08DB
:1038D8000A7E0020400D0300801A060000350C0007
:1038E800006A1800307D00205D9C00204C5C0020A0
:1038F800981B0308187900208837002058520308BD
:103908007021030800ED00E001330E2BA0D1002048
:10391800103726F009FFD02F97D1B74F07F1D009FC
:10392800387912F073F8103717F8091C17F8082CB3
:1039380012F055F94F45F3D10022B04900235354F2
:1039480001320D2AF9D1AE4AFF2199540133082BCF
:10395800F9D1D5F800A0AB483C22002129F04BFE54
:1039680000220AF04007052302920299A64A885CC1
:103978000C224A43A349505437B91E2801BFFF20DF
:1039880003F1FF335054DBB2029A0132052A029246
:10399800EBD19E4F84F8C53597F80090484622F041
:1039A80061F84FEAC90108EB0103994A93F809E065
:1039B80082F800E09A7A974B1A70837A13B9CAF39F
:1039C800401200E0012284F8C62533B9924B0AEA76
:1039D8000303003318BF012300E00123C4F8C835EE
:1039E80000238E4840F2DC5420F813400133082BA2
:1039F800F7D12AB9A9F11709B9F1020F1ED812E0B7
:103A08008844874BD8F80C1098F808201A700029B9
:103A1800F0D000239342EDDA824851F8234040F871
:103A280023400133F6E71AF047FB7D4B1B782BB197
:103A38007D4B0122C3F8C82583F8C6257B497C48FD
:103A480001F14004B0F90830B0F90620DFED796AD9
:103A5800D21A07EE102AB0F904209B1A07EE903A02
:103A6800F8EEE77AB8EEC77AC7EEA67A0C3087EE9A
:103A7800267A17EE903A01ED017A41F8083BA14207
:103A8800E0D122F001F808A80021202229F0B3FD96
:103A9800387821F0E7FF00B1007A089005201AF085
:103AA800AFF918B10088003018BF01202A683178B2
:103AB800C2F3400301F1FF3E8DF82D30C2F38013AD
:103AC8008DF82F30DEF1000343EB0E038DF825301F
:103AD800C2F3C03300F001008DF8283012F40063FF
:103AE8008DF82C0004D0544B9B7A5F1E7B427B419F
:103AF800881E8DF82930C2F30043CC1E8DF8303073
:103B08004342434161426141474C8DF8263094F865
:103B1800C6358DF82710003318BF01238DF83230D1
:103B2800C2F300538DF83330444B1988ADF8361082
:103B380043495B88ADF834300B7A8DF83830581E1D
:103B480002288CBF00200120D60448BF3D4A8DF8CA
:103B58002E0048BF9288C8888988ADF83C1048BFB5
:103B6800ADF83C20042BADF83A0008D100264FF4FC
:103B780080508DF82E6012F0C5FCADF83C602B68C3
:103B88003148324EC3F300728DF82420304A927ABD
:103B980084F80C261A0148BF00234FF000014FF0AB
:103BA800700244BF8DF832308DF8333029F023FD90
:103BB8004FF0000AD0469DF82C3023B116F8033C8C
:103BC800363B012B0DD9382026F05DFE9DF82F30AD
:103BD800002B3FD000283DD0026856F8073C9A4297
:103BE80038D1194A53781278009203220192122090
:103BF80001211FFA88F2AFE158520308C8380020A3
:103C0800D5380020E4940020A3400308A0820020B7
:103C1800F5720020F6720020200010009E5A002045
:103C2800F4720020F772002018330020E8380020D2
:103C3800787300200000FA43D67D0020A05B0020A6
:103C48008E82002088820020CC5A00205F52030810
:103C58000A7E00209DF8273073B99DF825301BB1E6
:103C6800D6F805309B0709D49DF826303BB1D6F825
:103C7800053003F0010302E0002300E00223089A64
:103C8800A2B99DF8322022B1D6F80520170701F114
:103C980066849DF8332022B1D6F80520D50601F1B7
:103CA8005E84D6F8052012F0040F09E0013A012AD3
:103CB80008D8D6F80520500601F1518412F0200FDB
:103CC80041F05084002B00F09881012BA6F10707E2
:103CD80071D10023FF229DF8381084F81036C4F8FB
:103CE8001436C4F81836C4F81C36C4F8603684F89C
:103CF800642684F8652684F8663684F8673684F87E
:103D08006836974A9818C06810F0240F04D098585D
:103D180056F8072C904203D01033D02BF1D10DE088
:103D28004B1E032B0AD8DFE803F0020604060C2218
:103D380002E0542200E015228A4B1A728A4B16F8C8
:103D4800030CC3F87876002583F86C5611F05EFEF4
:103D580020B1022383710123C3710572317811F0F8
:103D680079FF38460021012219F0A6FA7F49804BD5
:103D7800C4F87C3600257F4BC4F880360A1D3846C7
:103D8800C4F8845619F0F0F956F8070C16F8021C16
:103D98002A4611F07DFD784A937802EBC30320216F
:103DA80059721379013313715378127813208DE8FF
:103DB80024002946C0E0022B1FFA88F96E4D53D122
:103DC8005FFA8AFB1C2303FB0B430020012283F8C4
:103DD8006E0683F8760683F86DB683F86C26C3F80A
:103DE800787616F8030C039211F010FE0BF101031C
:103DF800DBB218B1039A8271C2710372317811F083
:103E080029FF38460021012219F056FA1C2101FB2E
:103E18000BF1621802F27C635848C2F87C064FF036
:103E2800000B574A5A60C3F808B0504B19440A1D92
:103E3800384619F099F956F8070C16F8021C5A4634
:103E480011F026FDAB7805EBC30340225A72EB78DC
:103E58002A780133EB706B78009201220AF1010A8B
:103E6800019213205946C1E0032B68D195F801B09F
:103E7800BBF1030F07D92B78009301210191122080
:103E88004A465B4668E09DF838C0BDF83AE0BDF8A0
:103E98003C309DF824000CF1FF32032A0FD8DFE8EC
:103EA80002F002060A12DFF8E4900C210FE0DFF8B6
:103EB800E09015210BE0DFF8DC90542107E0DFF8F3
:103EC800D890012103E0DFF8D490152100232D4A72
:103ED80000904A433846B2FBFEF292B2CDF80CC0CD
:103EE80011F0DCFE284B9DF82E2043F82B00DDF85E
:103EF8000CC0C0F80C90204B22B19A7803EBC20397
:103F0800192207E09A78BCF1040F03EBC2030CBF37
:103F18000D2209225A72AA786B780132132005F80B
:103F2800323005EBC20201335760DBB22A786B707E
:103F380000920222019200211FFA88F257E095F8B8
:103F480000B0BBF1070F2BD902226B780192CDF894
:103F580000B0122001214A4611F034FD4DE000BFA7
:103F680058520308B807002018330020943900205D
:103F78001954010899550108CC5A0020D558010850
:103F8800F153010840420F0070820020F1570108E8
:103F9800C55701088F570108D9550108E955010887
:103FA8009DF82410BDF83420C24B009193FBF2F227
:103FB8000121BDF8363092B2384611F06FFEAB7869
:103FC800013305EBC3010A224A702A7805F8332029
:103FD80004EB8B0B0132D2B2CBF84C074F602A703E
:103FE8006B78009203220192132000214A4611F0B7
:103FF800E9FCB14A93780133937008F10108B8F1EC
:104008000D0F06F110067FF4D6ADAC4BAC4F93F80C
:10401800008000254046A8F117083D7021F022FDD8
:10402800B8F1020F1AD82E46A64DAB19D3ED007A77
:10403800F5EE407AF1EE10FA04D1A34E3368D904B4
:104048002FD424E00FCB4035354485E80F003B786A
:1040580010360133402E3B70E6D1EEE7964BD0F890
:1040680004C093F801E0437A9E4528BF9E4687F82E
:1040780000E0BCF1000FE0D07545DEDA934E2B016D
:104088001E4463440FCB013586E80F00F4E721F0A6
:10409800CFFC9DF82E308E4D23BB012385F8EC37DD
:1040A80020E039780129F2D9884A02F1080302EBA5
:1040B8000112183210339342E9D053ED047AB6EE68
:1040C800007A67EE877A43ED047A53ED057A67EE56
:1040D800877A43ED057A53ED037A67EE877A43EDE5
:1040E800037AE7E70220002111F085FC794A13786A
:1040F800242043F00403137011F088FC0122C5F852
:10410800F00785F8F42740B1112282710222C271AA
:1041180000220272012111F09DFD002019F07EF9A4
:10412800382011F073FC074628B115238371022348
:10413800C371002303723846012111F08BFD384604
:10414800002111F0D9FC644F644B9F4211D23B7897
:10415800022B0CD1F87811F059FC40B11D22827164
:104168000E22C27100220272202111F073FD043761
:10417800EAE7002011F0F2FE012011F0EFFE022024
:1041880011F0ECFE112011F041FCC4F8F80780464C
:10419800182011F03BFC11210746C4F8FC07002247
:1041A800404611F01CFD00223846112111F017FD80
:1041B8000023059333689A0742BF454A92F80028BE
:1041C8008DF814201F0444BF95F801288DF8152098
:1041D8001C0507D5424B9B7A012B04BF95F8023882
:1041E8008DF816303F4B40481B7803F0FD03012B38
:1041F80004BF95F803388DF8173000211E2229F0E6
:10420800FAF9002305AA9A5C511E0329374988BF89
:10421800002241F823200133042BF3D1002351F865
:104228002320012A01F0A1810133042BF7D10023B7
:1042380051F82320022A01F09D810133042BF7D184
:10424800002351F82320032A01F099810133042B1C
:10425800F7D1002451F82430042B04BF002341F87F
:1042680024300134042CF5D11F4F4FF00009B879E0
:10427800002852D011F0CAFBC4F1130397F9078044
:10428800DBB220B10622C371002382710372B879B0
:1042980011F0BCFB132111F0DDFCB879002314499F
:1042A80011F813E086454FEA430223D18B185B7857
:1042B80024E000BF40420F00CC5A0020A08200201A
:1042C80058740020843A0020307D0020C43A002031
:1042D80018330020BECA00207C5B0308845B0308F7
:1042E800D67D0020FC7E00201C3B0020207F002083
:1042F800E02103080133102BD1D100233B728B4BF3
:10430800182202FB08331A6A7A72501C0722FA72C2
:1043180001221862BA721A779144013C07F1060724
:10432800A5D1B9F1000F0ED1FEF7F0FE074600281F
:1043380040F014813946032011F05DFB384626F021
:104348001FFA052700E17A4FA0463B78002B00F0C2
:10435800E4805FFA88F317F80B0C039326F0E4F96E
:1043680017F80C0CDFF8DC9126F0DEF957F808ACEA
:10437800504620F083F910A820F045F957F8103C72
:104388004C33119357F8043C10930A2303FB08930A
:1043980012937B6814930022012BD4BF13464FF469
:1043A800806316934FF4006317934FF400531893E8
:1043B8004FF480735046199310A94FF400331392A9
:1043C80015921A9320F030F9DAF80030594A43F080
:1043D8000103CAF800305168574B0B4043F440338F
:1043E800536057F8102C79685368012923F04073FB
:1043F800D4BF0020012023F4807343EA00235360D4
:1044080090684E4B034043F002039360D36A23F451
:1044180070004B1EDBB240EA0353D362A9F11E00C1
:104428000123817A002964D090F807E00399714547
:104438005FD1017A90F80BE003F1010B09295FFACB
:104448008BFB12D9A1F10A0CD2F80C900CEB4C0C96
:104458004FF0070A0AFA0CFA29EA0A090EFA0CFEC2
:1044680049EA0E09C2F80C900FE0D2F810C001EB2F
:10447800410A4FF0070909FA0AF92CEA090C0EFA61
:104488000AFE4CEA0E0CC2F810C0062B0FD8013BEE
:10449800D2F834C003EB83034FF01F0E0EFA03FE6D
:1044A8002CEA0E0E99404EEA0101516320E00C2BD4
:1044B8000FD8073BD2F830C003EB83034FF01F0E31
:1044C8000EFA03FE2CEA0E0E99404EEA0101116322
:1044D8000EE00D3BD2F82CC003EB83034FF01F0E08
:1044E8000EFA03FE2CEA0E0E99404EEA0101D16243
:1044F8005B4613490630884293D1936843F40073AE
:104508009360936843F480739360936843F0010366
:104518009360936843F08043936008F10108B8F111
:10452800030F07F118077FF410AFFDE6B807002066
:10453800D407002000230140E030FCFFFDF7FFC056
:10454800343B00203A3B002026F00CF9642018F098
:1045580042FF013FF8D1384626F012F9B64F1CF059
:1045680027FC0023C7F84038B44B03934FF0FF32C1
:104578005A65326812F4003F3CD0C82018F02BFF6F
:10458800AE2017F05AFC08B117F05DFCDFF8E49292
:1045980085F84408C82018F01EFFA94BC5F848380C
:1045A800484601F075FDFF2385F8553808234FF07C
:1045B800010A4FF0000B85F850384846152385F856
:1045C800513885F854A885F856B8C5F8589817F0A2
:1045D800E1FC85F85CB885F85DA818F0A9FE94A3FD
:1045E800D3E9002312EB000A43EB010BC9E906AB40
:1045F80003F072F93368934D180642BF924B934A01
:104608001A6000211022924828F0F5FF0026232086
:104618002E6218F0E0FE20AB05F1180003F86E6D6D
:1046280075210122FCF7CEFCC0B18A4B2B648A4B62
:104638006B64432385F84C3005F118000DF1130322
:1046480031460122FCF7BEFC9DF8133003F07E03CF
:104658008DF81330002840F097809EE0286A10B942
:10466800142011F0D3F9286228B1142383710E2382
:10467800C37100230372286A092111F0EBFA774805
:10468800002111F0EEFB76486B218022FCF7D8FE62
:104698000626962018F09FFE10AB7148752101225E
:1046A800FCF77EFF9DF84030682B04D0013E16F0E1
:1046B800FF06EED118E010AB69480C210122FCF787
:1046C8006FFF9DF84030142B0ED3182B02D9543BA2
:1046D800062B09D8032385F83930432385F84C3055
:1046E800604B2B64604B4DE0286A10B9142011F020
:1046F8008DF997F86838286283B920B1142282713D
:104708000E22C2710372286A092111F0A3FA5348D4
:10471800032111F0A6FB012387F8683850486B2164
:104728008022FCF76DFE962018F055FE10AB4C4821
:1047380075210122FCF716FF9DF84030712B0AD035
:1047480004D8122B09D0702B11D00AE0982B06D070
:10475800AF2B0ED005E006230CE008230AE00C235B
:1047680008E0029B013B029300F08B80DBE7052306
:1047780000E0092385F83930432385F84C303B4B5A
:104788002B643B4B6B647CE0682B06D1012385F8D6
:1047980039301D2385F84C3073E09DF8123003F052
:1047A8007E03682B8DF8123066D1DFF898902E6C56
:1047B8000223062185F839300A4610AB09F11800A2
:1047C800B0479DF843309DF8452003F001035B0096
:1047D80002F0010243EA82029DF8413003F001032E
:1047E800134312D05AB2012A01D1002302E0022A4F
:1047F80003D1012385F83A3043E003F00303032B88
:10480800F7D0032018F020FE3BE006ABD9F8406053
:1048180009F118000C210122B0479DF8183013F057
:104828000F03EED0042BE4D1DFE700BFAFF3008025
:10483800404B4C000000000018330020B80700204F
:10484800C0ED0208287E0020407F00209A5B0020EF
:104858008C010010CD0F000807110008003001403E
:10486800407E0020A9150008491400086D150008AD
:1048780009140008603B0020702B04BF042385F84E
:104888003930AB6CC7F86C383C4BEB6395F8393072
:104898003B4A0026032B85F8386040F07586394B73
:1048A8001360394B5360394BD360394B536204233F
:1048B80082F8383006260BE05A1F012A40F270862B
:1048C800A3F10802012A40F26B860C2B00F06886DF
:1048D800002100910191092032460B4611F072F82F
:1048E800002E00F095802B4B1E702B4E012022F0DD
:1048F80013F9F278B07985F83400B388B1784AB101
:1049080000280CBF7D234FF47A734A1E85F83620A1
:104918004B4302E01A4981F83620DFF89490DFF81B
:1049280060A0C9F8003050462B68984733780BB11F
:104938008AF83830194D1A4B2B606B60AB60F379ED
:1049480013B97389B3BB4BE0164B2B604FF0000AC9
:10495800154BF179D9F800209FED140A1C2000FBB3
:104968000A30543343F82A0000230AF1010A10F0F0
:104978009FFABAF1030FEBD1E3E700BFECED0208B1
:10498800287E00204D1A0008570800083F08000834
:1049980090C1793D447D0020405B0020000000105C
:1049A80043380108FD3701080C000010F304353FB7
:1049B8008C010010B04B6B604FF0000AAF4BD9F878
:1049C800001072891C2000FB0A30543343F82A0077
:1049D800B3890AF1010A10F0DDFABAF1030FEDD13B
:1049E800F38993B1A44BAB600025A54BD9F800100F
:1049F800F2891C2000FB0530543343F82500338A24
:104A0800013510F0C7FA032DEFD11CF027FB10B9C0
:104A1800012018F019FD0420002110F0ECFF994A3C
:104A28001378002043F00203137025F0A9FE0A262C
:104A380025F098FE192018F0CEFC934B5B6899037B
:104A480002D4012018F0EAFC192018F0C4FC013E39
:104A5800002018F0E3FC16F0FF06E9D1304625F0F7
:104A68008FFE1AF0BBF9894BDFED897A1B7C00EECB
:104A7800103AB8EEC00A002520EE270A10F010FA06
:104A8800844B83ED000A844B1D605D609D60834B01
:104A98001E70834B1E70834B4FF07E521A60824B00
:104AA8001D60824B1D60824B1D6021F08FFA814B87
:104AB800FF211846202228F09EFD034606707E48F6
:104AC8007E49D0F800C001221CF0020618460A7080
:104AD80008EE105A0B4606D0427002228270042259
:104AE8000A701A22C270764A11684A025FBF1A78A1
:104AF800551C1D70142558BF85541A786D4D4FF0FC
:104B0800040E02F101095FFA89F900F802E01CF0CD
:104B18000A0E83F800900FD04FF0050A05F809A097
:104B280002F1030ADFF894910232D2B289F800A0A8
:104B38004FF0060905F802908D0641BF1A78551CFA
:104B48001D70072548BF85541CF0040F5D4D04D126
:104B58002A68D20610D50A060ED51A784FF0030C2B
:104B680000F802C002F1020C0132D2B283F800C090
:104B78004FF0180C00F802C011F0800C02D0BEF102
:104B88000A0F06D02A68D2061ED5EEB1BCF1000F76
:104B98001AD01A7809268654561CF6B24FF0080E19
:104BA80000F806E0961CF6B24FF0130E00F806E087
:104BB800D61CF6B24FF0150E00F806E0561D04326A
:104BC800D2B21E7016268654D5F800E01EF0100FDB
:104BD80014D01A780A268654561CF6B24FF00E0CDA
:104BE80000F806C0961CF6B24FF01B0C00F806C081
:104BF800161D0332D2B21E701C2686541EF0400FBA
:104C08001FBF1A78561C1E70192618BF86541A78AA
:104C180011F4803F4FF00B0E00F802E002F101069C
:104C28001CBFDFF898E00232F6B21E701FBF8EF884
:104C38000020204A4FF00C0E02F806E01A78561CA5
:104C4800F6B24FF00F0E11F4806F1E7000F802E0FC
:104C58003CD0DFF874E09EF808E0BEF1000F35D0D4
:104C6800DFF858E002328EF80020124A4FF0100E9A
:104C780002F806E02AE000BFFD3701086C000010CA
:104C8800CC000010BECA00209C7200205C050010F9
:104C980035FA8E3C88050010500500100C050010F0
:104CA800BC0400102C05001020050010240500107D
:104CB8002805001048CA00202C7D0020BFCA00200B
:104CC800307D0020287200200C5200200E0341BFC6
:104CD8001A78511C1970112148BF81541A7817216C
:104CE8008154511CC9B24FF0120900F80190911C6F
:104CF800C9B21D264654D11CC9B21E264654511DA0
:104D08001970131DDBB24FF01F0A00F803A0002131
:104D18004FF42272864828F06EFC1BF099F8854BF8
:104D28004FF00008A3F8008083F8028083F803801E
:104D38001AF0FEFB804B196811F000519B4600F0F9
:104D48003D847E4B7E4893F8543087F870387D4B0D
:104D5800C7F8743801F07AFA012387F8803850468A
:104D6800FF2387F8828887F8813810F04FFE764E47
:104D7800306028B10E2380F80690C37180F808804F
:104D8800092110F067FF0221704811F06AF83068B5
:104D980010F064FE02210020FDF7C6FE306810F016
:104DA80062FE97F8703887F884380023684E4FF40D
:104DB800005226F813200133B3F5F07FF6D1143EE4
:104DC800644F304601F0E0F930463E6017F0E2F8F3
:104DD800614B624A1B68386803F00403137011F0D2
:104DE80036F85F495F4A10A811F020FF0521062216
:104DF80010AB386811F004F807210A465A4B386896
:104E080010F0FEFF0B210822584B386810F0F8FF0D
:104E18000B210922564B386810F0F2FF38680368F6
:104E28005B6A984718F084FA524B00F5741000F545
:104E3800106018600023504900265A185E546833E1
:104E4800B3F5D06F5670F6D14FF4005019F01CF836
:104E58000346C0B15F7990F9020003238DE848004A
:104E6800464B4FF4005153F82730324618F016FDE0
:104E7800434B186038B1434B00200021C3E90001BF
:104E8800414B01221A70DBF80030190640F190807E
:104E98003E4E3F4B73603F4B33603F4B00275F6094
:104EA8009F60777401F0E2FD3C4BF7741B68336236
:104EB800384601F03FFE3268394B11780C224A43DC
:104EC8001F469A5C022A03D1012001F033FE6BE0F1
:104ED800012A69D1022018F0D7FF18B9802011F0F3
:104EE80011FB61E00179737C2E4A12F803E08E45CC
:104EF80004D00133DBB2042BF6D900237374737C1E
:104F080090F9020012F803E033681A780C2303FBC7
:104F1800027300225B780093184B0192022153F828
:104F28002E3018F0BBFCB0600028CDD1D6E700BF0A
:104F380000BD002058830020307D0020E65B002063
:104F48008C3B0020F0ED0208445C0020003C00404F
:104F5800A03B002034C9002078CA00204CC900209A
:104F6800F62003084E1E030807210308152103082D
:104F7800202103085CC900208895002088010308C7
:104F88005C8000209880002058800020407F00200E
:104F9800B89400209A5B0020347D00207C94002087
:104FA800E0010308062E00200520002110F023FD53
:104FB800A34B012200261A70A24A83F84D6783F892
:104FC800606783F84C675E709E70DE70C3F82421BA
:104FD800C3F82C211E71DE711E725E729E725E74A1
:104FE80083ED4A8A03F26C7383ED008A13F0C6FEE0
:104FF800954B1E70DBF80030DA0305D501F0AAFBEB
:105008000620314610F0F7FCDBF800305B0505D5CB
:105018001CF01EFE0720002110F0EDFC272010F0E8
:10502800F5FC8A4B186028B10E2383710123C371E4
:1050380000230372202110F00DFE854B01221A7007
:1050480084491C2202FB0412834952688A42E3B253
:1050580003D00134102CF3D10023039E7F4A1C2473
:1050680004FB0368106BD8F86830034313630B68BC
:1050780023F001030B602C2010F0C8FC784B18605B
:105088001C4620B10E238371C371002303720921CA
:1050980010F0E0FD0021734810F0E3FE4FF47A7041
:1050A80018F099F92068704C10F0DDFC00216D486B
:1050B8000A460A2310F006FF25F095FC40B1013C92
:1050C800FAD16A4B1A7E83F8244001321A7607E037
:1050D800674B1A68654B5A61012283F824201876B9
:1050E800644B654E0021997041F2142102225A70D6
:1050F8005A50DBF80030614A13F4002318BF01232B
:1051080013705F4B5B78202B01D8202308E0402BDD
:1051180001D8402304E0802B94BF80234FF4807390
:10512800534CC6F8483C574B4FF47A72A3F84820C2
:105138002368C6F84C3C544B00271F704FF400609E
:105148002368C6F8503C86F8547C18F09DFEA046AB
:105158004E4C70B103234FF0180E90F902004FF433
:1051680000618DE808403A464FF4965318F096FBD4
:105178002060236813B1464B464A1A604FF48050AA
:1051880018F082FE70B10321082390F90200002272
:105198008DE80A004FF480514FF4165318F07EFB47
:1051A800C6F8580CD6F8583C13B1394B3A4A1A602D
:1051B800DBF8002040F60203134053B1374B0321BC
:1051C8001970374B01211970364900230B80364975
:1051D8000B8012010CD5354B1B6898472B6886F855
:1051E8005C0C10B143F4806301E023F480632B600E
:1051F8002F4D4FF480602C6818F046FE002800F010
:10520800C8800022032790F90200009701924FF40A
:1052180080614FF4E13318F041FB2060002800F072
:10522800B880013F00F09680206818F00EFA824698
:105238002068BAF1000F3DD018F001FAF4E700BF7A
:1052480088BF0020000080BF79C90020448000206A
:105258004C80002010080020706002400038024096
:10526800F47F002000380040A1860100209500202E
:105278007C940020A0A4002018330020E45B0020C8
:1052880048800020C0040010E49F00208094002083
:1052980088CA0020D0090020EC090020A052002074
:1052A800702F002060A0002062A00020A82F0020FE
:1052B8006C2F0020FF211AF043FED8F80030CDF8FB
:1052C80018A003F5FA798DF81CA0D8F800304B45E2
:1052D800A7D2206818F0B9F90428F6D9206818F080
:1052E800AEF98DF818000390206818F0A8F98DF829
:1052F80019000290206818F0A2F98DF81A00824669
:10530800206818F09CF98DF81B008146206818F079
:1053180096F9039A8DF81C00552A029B81D1012B1E
:105328007FF47FAFBAF1FF0F7FF47BAFAA287FF439
:1053380078AF8DF81B0006A821F034FF48457FF4AC
:1053480070AF002307228DF841308DF842208DF888
:10535800433009E010AB8DE88800204639463A46CC
:105368003B461AF00CFE88B19DF8413084F8443071
:105378009DF843209DF8423043EA0223A4F84630C2
:10538800BD4B01221A705A709A7004E0206818F018
:1053980072FA00232360B94BB9481B68CBF8003078
:1053A80000210127602286F8EC7728F024F9B54A15
:1053B800B54C0023C2F82C31B44A204613601CF0C7
:1053C8004DFB15F00BFC6428B8BF642060653946B6
:1053D80038461CF079FBAE4B5A791E4652B1AD4B9C
:1053E8001B68642BB8BF6423C4F89C30022039467C
:1053F8001CF06AFB7379DFF89882A74E022B26D13E
:1054080033689B0723D5B8F80030A44F97FBF3F314
:105418009BB2642BB8BF6423C4F8E4300320012195
:105428001CF052FB98F80530022B04D1B8F80200A2
:1054380097FBF0F001E015F0D1FB80B26428B8BF0B
:105448006420C4F82C01012104201CF03DFB062037
:1054580001211CF039FB082001211CF035FBDBF889
:10546800003040F602011940003118BF0121072021
:105478001CF02AFB052001211CF026FBDBF800109C
:105488000920C1F3C0111CF01FFB31680A20C1F3C9
:10549800C0011CF019FB316846F2A813C4F8DC32CD
:1054A8000B20C1F380011CF00FFB31680C20C1F305
:1054B80040111CF009FB31680D20C1F300111CF0EC
:1054C80003FBDBF800100E20C1F340411CF0FCFA8E
:1054D800DBF800100F20C1F380211CF0F5FABBF8AF
:1054E8000210102001F001011CF0EEFADBF80010A8
:1054F8001120C1F3C0611CF0E7FADBF8001012209C
:10550800C1F340711CF0E0FA132001211CF0DCFA11
:10551800162001211CF0D8FA614B142019781CF0D0
:10552800D3FA08201AF0E4FC2B681968044629B15C
:105538001AF0EAFC002814BF0146214615201CF089
:10554800C3FA0820002110F056FA564A137863F07F
:105558007F03137021B0BDEC028BBDE8F08F0423EC
:10556800FEF7B3BB0323FEF7B0BB312385F80A3837
:10557800FEF75DBE322385F81038FEF761BE1023B2
:1055880085F81638FEF765BE042B7FF495A9464BBF
:105598001360464B5360464BD360464B536207E05B
:1055A800454B2B60414B6B60414BEB60414B6B6251
:1055B800042385F838300726FFF78AB93F4B40485F
:1055C8000291C7F8603C00F073FD012387F86C3C3A
:1055D800FF23029987F86D3C394887F86E1C0D2324
:1055E80087F8683C87F8696C16F0D4FC22E42B2015
:1055F80010F00CFA0746C9F8700C28B11823BB71D3
:105608000223FB7187F808A03846012110F022FB1D
:105618003846012110F070FA3C2017F0DCFE4FF0FC
:105628000009737DDFF89CA09945BEF6FEA800200E
:1056380025F0A6F83846002110F05EFA00217820FF
:1056480017F0B8FE012025F09BF83846012110F02C
:1056580053FA7820002117F0ADFE09F10109E0E7BF
:10566800FDF754FD00287EF4E5A88AF8150014F02B
:105678009CFFFEF7DFB800BF417A00204C5C002099
:105688005804001000000010E82600205404001000
:105698000A7E00208C0100102C7D002040420F0063
:1056A80058800020BECA0020811B00085708000847
:1056B8003F08000890C1793D3F1C00081CEE020815
:1056C800783F00201879002070B51C4B0E4670B149
:1056D8001A881B48D1E900455208012A98BF48F2A8
:1056E8000502002100196941C6E900011A801B88DA
:1056F80013F001030ED070BD124951F82320C2F3F4
:10570800073212F0040F4FEA830408460CD112073F
:1057180005D401330C4A12789342EDDB0CE00B4AB6
:1057280012680B3A2B2AF4D891F8E820203250F866
:105738002200074AA050ECE770BD00BFE83F0020F8
:10574800A0860100505C002044CA002040CA002006
:105758007AC900202DE9F041284B294E0F46F0B1B7
:105768001A78F02A0FDD7F221A705A78B07851B271
:10577800814201DA002902DA9978494299709978C8
:105788000A445A7001E00F321A70D7E9004544F212
:105798001A1000194FF000016941C7E90001187893
:1057A800357893F9027093F901600022A0F17F0E19
:1057B800C0F1FF0C1146AA421DD2124B53F82230F9
:1057C8009B044FEA820814D5CBB29B1B83EAE3748F
:1057D800A4EBE374012C05DC33B19F4214BF63468C
:1057E800734602E0082300E00346074C44440131B5
:1057F800E3700132DFE7BDE8F08100BF080A00204E
:1058080044CA0020505C00207AC90020F0B5234C1F
:1058180090B1234A937803B9E378013BDBB29370E4
:10582800204B1868204B93FBF0F0D1E900231218A5
:1058380043EBE073C1E9002300210D462378994228
:105848002ADA1A4E56F82100C0F30323062B4FEA32
:1058580081071FD1164B1B685B070ED5104B0F4AEB
:105868009B7892F803E02B4493FBFEF20EFB123375
:10587800012BCCBF0023012303E005F0010383F0D3
:10588800010333B1C0F3834020300A4B56F820009F
:10589800F85001350131D1E7F0BD00BF44CA0020FE
:1058A800E83F002040CA002080841E00505C002091
:1058B80078CA00207AC9002010B50023084A127857
:1058C80093420BDA074A52F823200240824202BF71
:1058D800054A0C6842F823400133EFE710BD00BFCA
:1058E80044CA0020505C00207AC9002030B50D461B
:1058F800204CC0B1204BDA780AB1013A0AE0E179CC
:10590800187901398842B5BF01301A71187104221B
:10591800B8BF0122D5E90001DA70184A002312182D
:105928004B41C5E90023E279154B1AB1154A1268B3
:10593800100602D493F8E91014E013490E4A0968D6
:10594800D278B2FA82F289074FEA521206D512B11A
:1059580093F8EB1006E093F8E71003E0002AE9D08B
:1059680093F8EA10203103EB81014FF4A060BDE801
:105978003040A1E7A4720020E83F0020801A06000A
:10598800505C00202C7D00202872002030B5184A79
:10599800A8B1184B18886423434340F2FF3093FBA7
:1059A800F0F3322B03DD00235371012003E0142BA5
:1059B800CCBF02200820537983F001035371D1E949
:1059C80000450D4B93FBF0F05379241845EBE07537
:1059D800C1E9004553B9094991F8E73020334FF43C
:1059E800806001EB8301BDE8304065E730BD00BF52
:1059F800E83F0020AE5A002040420F00505C0020D3
:105A080010B5154B0C4670B1144A127822B1012A10
:105A18000CBF0220082001E09A7101209A7982F0D7
:105A280001029A7100E001200D4A92FBF0F2D4E9DC
:105A380000019B79801841EBE271C4E9000153B978
:105A4800084991F8E73020334FF4407001EB8301A7
:105A5800BDE8104030E710BDE83F0020A05200200C
:105A680040420F00505C00200346484060F30703A3
:105A7800C3F30722514061F30F2318B2704782B075
:105A88000023019001A81A5C4A401A540133042BE0
:105A9800F8D1019802B0704738B1022904D003291F
:105AA8000CBF02200020704701207047044B9A8ADF
:105AB800C282DA8A02831A8B4283D878704700BF81
:105AC800A4720020012070474FF0FF3070477047E4
